{
  "contractName": "FileContract",
  "abi": [
    {
      "anonymous": false,
      "inputs": [
        {
          "indexed": false,
          "internalType": "string",
          "name": "hashFTP",
          "type": "string"
        },
        {
          "indexed": false,
          "internalType": "uint256",
          "name": "id",
          "type": "uint256"
        },
        {
          "indexed": false,
          "internalType": "string",
          "name": "DocName",
          "type": "string"
        },
        {
          "indexed": false,
          "internalType": "string",
          "name": "DocDesc",
          "type": "string"
        },
        {
          "indexed": false,
          "internalType": "address",
          "name": "DocOwner",
          "type": "address"
        },
        {
          "indexed": false,
          "internalType": "uint256",
          "name": "createdAt",
          "type": "uint256"
        },
        {
          "indexed": false,
          "internalType": "bool",
          "name": "isCreated",
          "type": "bool"
        }
      ],
      "name": "Document",
      "type": "event"
    },
    {
      "inputs": [],
      "name": "docCounter",
      "outputs": [
        {
          "internalType": "uint256",
          "name": "",
          "type": "uint256"
        }
      ],
      "stateMutability": "view",
      "type": "function",
      "constant": true
    },
    {
      "inputs": [
        {
          "internalType": "string",
          "name": "",
          "type": "string"
        }
      ],
      "name": "documents",
      "outputs": [
        {
          "internalType": "string",
          "name": "hashFTP",
          "type": "string"
        },
        {
          "internalType": "uint256",
          "name": "id",
          "type": "uint256"
        },
        {
          "internalType": "string",
          "name": "DocName",
          "type": "string"
        },
        {
          "internalType": "string",
          "name": "DocDesc",
          "type": "string"
        },
        {
          "internalType": "address",
          "name": "DocOwner",
          "type": "address"
        },
        {
          "internalType": "uint256",
          "name": "createdAt",
          "type": "uint256"
        },
        {
          "internalType": "bool",
          "name": "isCreated",
          "type": "bool"
        }
      ],
      "stateMutability": "view",
      "type": "function",
      "constant": true
    },
    {
      "inputs": [
        {
          "internalType": "string",
          "name": "_hashFTP",
          "type": "string"
        },
        {
          "internalType": "string",
          "name": "_DocName",
          "type": "string"
        },
        {
          "internalType": "string",
          "name": "_DocDesc",
          "type": "string"
        }
      ],
      "name": "addDocument",
      "outputs": [],
      "stateMutability": "nonpayable",
      "type": "function"
    },
    {
      "inputs": [
        {
          "internalType": "string",
          "name": "_hashFTP",
          "type": "string"
        }
      ],
      "name": "getDocument",
      "outputs": [],
      "stateMutability": "nonpayable",
      "type": "function"
    }
  ],
  "bytecode": "0x60806040526000805534801561001457600080fd5b50610e37806100246000396000f3fe608060405234801561001057600080fd5b506004361061004c5760003560e01c806336a8915b146100515780637ccb6a641461006d578063b3dd697b14610089578063da4d8b47146100bf575b600080fd5b61006b60048036038101906100669190610916565b6100dd565b005b610087600480360381019061008291906108cd565b610280565b005b6100a3600480360381019061009e91906108cd565b610597565b6040516100b69796959493929190610a8e565b60405180910390f35b6100c76107b4565b6040516100d49190610b32565b60405180910390f35b6000808154809291906100ef90610cb7565b91905055506040518060e0016040528084815260200160005481526020018381526020018281526020013373ffffffffffffffffffffffffffffffffffffffff168152602001428152602001600115158152506001846040516101529190610a77565b9081526020016040518091039020600082015181600001908051906020019061017c9291906107ba565b506020820151816001015560408201518160020190805190602001906101a39291906107ba565b5060608201518160030190805190602001906101c09291906107ba565b5060808201518160040160006101000a81548173ffffffffffffffffffffffffffffffffffffffff021916908373ffffffffffffffffffffffffffffffffffffffff16021790555060a0820151816005015560c08201518160060160006101000a81548160ff0219169083151502179055509050507ffc42f28966fd0abcaff2d53ef2ce0322023ef878027c94d0a31627b750b82d2b836000548484334260016040516102739796959493929190610a8e565b60405180910390a1505050565b60006001826040516102929190610a77565b90815260200160405180910390206040518060e00160405290816000820180546102bb90610c54565b80601f01602080910402602001604051908101604052809291908181526020018280546102e790610c54565b80156103345780601f1061030957610100808354040283529160200191610334565b820191906000526020600020905b81548152906001019060200180831161031757829003601f168201915b505050505081526020016001820154815260200160028201805461035790610c54565b80601f016020809104026020016040519081016040528092919081815260200182805461038390610c54565b80156103d05780601f106103a5576101008083540402835291602001916103d0565b820191906000526020600020905b8154815290600101906020018083116103b357829003601f168201915b505050505081526020016003820180546103e990610c54565b80601f016020809104026020016040519081016040528092919081815260200182805461041590610c54565b80156104625780601f1061043757610100808354040283529160200191610462565b820191906000526020600020905b81548152906001019060200180831161044557829003601f168201915b505050505081526020016004820160009054906101000a900473ffffffffffffffffffffffffffffffffffffffff1673ffffffffffffffffffffffffffffffffffffffff1673ffffffffffffffffffffffffffffffffffffffff168152602001600582015481526020016006820160009054906101000a900460ff1615151515815250509050600015158160c0015115151415610534576040517f08c379a000000000000000000000000000000000000000000000000000000000815260040161052b90610b12565b60405180910390fd5b7ffc42f28966fd0abcaff2d53ef2ce0322023ef878027c94d0a31627b750b82d2b816000015182602001518360400151846060015185608001518660a001518760c0015160405161058b9796959493929190610a8e565b60405180910390a15050565b6001818051602081018201805184825260208301602085012081835280955050505050506000915090508060000180546105d090610c54565b80601f01602080910402602001604051908101604052809291908181526020018280546105fc90610c54565b80156106495780601f1061061e57610100808354040283529160200191610649565b820191906000526020600020905b81548152906001019060200180831161062c57829003601f168201915b50505050509080600101549080600201805461066490610c54565b80601f016020809104026020016040519081016040528092919081815260200182805461069090610c54565b80156106dd5780601f106106b2576101008083540402835291602001916106dd565b820191906000526020600020905b8154815290600101906020018083116106c057829003601f168201915b5050505050908060030180546106f290610c54565b80601f016020809104026020016040519081016040528092919081815260200182805461071e90610c54565b801561076b5780601f106107405761010080835404028352916020019161076b565b820191906000526020600020905b81548152906001019060200180831161074e57829003601f168201915b5050505050908060040160009054906101000a900473ffffffffffffffffffffffffffffffffffffffff16908060050154908060060160009054906101000a900460ff16905087565b60005481565b8280546107c690610c54565b90600052602060002090601f0160209004810192826107e8576000855561082f565b82601f1061080157805160ff191683800117855561082f565b8280016001018555821561082f579182015b8281111561082e578251825591602001919060010190610813565b5b50905061083c9190610840565b5090565b5b80821115610859576000816000905550600101610841565b5090565b600061087061086b84610b72565b610b4d565b90508281526020810184848401111561088c5761088b610d92565b5b610897848285610c12565b509392505050565b600082601f8301126108b4576108b3610d8d565b5b81356108c484826020860161085d565b91505092915050565b6000602082840312156108e3576108e2610d9c565b5b600082013567ffffffffffffffff81111561090157610900610d97565b5b61090d8482850161089f565b91505092915050565b60008060006060848603121561092f5761092e610d9c565b5b600084013567ffffffffffffffff81111561094d5761094c610d97565b5b6109598682870161089f565b935050602084013567ffffffffffffffff81111561097a57610979610d97565b5b6109868682870161089f565b925050604084013567ffffffffffffffff8111156109a7576109a6610d97565b5b6109b38682870161089f565b9150509250925092565b6109c681610bca565b82525050565b6109d581610bdc565b82525050565b60006109e682610ba3565b6109f08185610bae565b9350610a00818560208601610c21565b610a0981610da1565b840191505092915050565b6000610a1f82610ba3565b610a298185610bbf565b9350610a39818560208601610c21565b80840191505092915050565b6000610a52603283610bae565b9150610a5d82610db2565b604082019050919050565b610a7181610c08565b82525050565b6000610a838284610a14565b915081905092915050565b600060e0820190508181036000830152610aa8818a6109db565b9050610ab76020830189610a68565b8181036040830152610ac981886109db565b90508181036060830152610add81876109db565b9050610aec60808301866109bd565b610af960a0830185610a68565b610b0660c08301846109cc565b98975050505050505050565b60006020820190508181036000830152610b2b81610a45565b9050919050565b6000602082019050610b476000830184610a68565b92915050565b6000610b57610b68565b9050610b638282610c86565b919050565b6000604051905090565b600067ffffffffffffffff821115610b8d57610b8c610d5e565b5b610b9682610da1565b9050602081019050919050565b600081519050919050565b600082825260208201905092915050565b600081905092915050565b6000610bd582610be8565b9050919050565b60008115159050919050565b600073ffffffffffffffffffffffffffffffffffffffff82169050919050565b6000819050919050565b82818337600083830152505050565b60005b83811015610c3f578082015181840152602081019050610c24565b83811115610c4e576000848401525b50505050565b60006002820490506001821680610c6c57607f821691505b60208210811415610c8057610c7f610d2f565b5b50919050565b610c8f82610da1565b810181811067ffffffffffffffff82111715610cae57610cad610d5e565b5b80604052505050565b6000610cc282610c08565b91507fffffffffffffffffffffffffffffffffffffffffffffffffffffffffffffffff821415610cf557610cf4610d00565b5b600182019050919050565b7f4e487b7100000000000000000000000000000000000000000000000000000000600052601160045260246000fd5b7f4e487b7100000000000000000000000000000000000000000000000000000000600052602260045260246000fd5b7f4e487b7100000000000000000000000000000000000000000000000000000000600052604160045260246000fd5b600080fd5b600080fd5b600080fd5b600080fd5b6000601f19601f8301169050919050565b7f496e76616c696420646f63756d656e74206f722074686520646f63756d656e7460008201527f206973206e6f7420646f776e6c6f61646564000000000000000000000000000060208201525056fea2646970667358221220539ccc6a156e4de4651ef3f6ac3c6cacc8ee5a0977c494ca5de83933fb2fcc7f64736f6c63430008070033",
  "immutableReferences": {},
  "source": "// SPDX-License-Identifier: MIT\n\npragma solidity ^0.8.7;\n\ncontract FileContract {\n    uint256 public docCounter = 0;\n\n    struct Data {\n        string hashFTP;\n        uint256 id;\n        string DocName;\n        string DocDesc;\n        address DocOwner;\n        uint256 createdAt;\n        bool isCreated;\n    }\n\n    mapping(string => Data) public documents;\n\n    event Document(\n        string hashFTP,\n        uint256 id,\n        string DocName,\n        string DocDesc,\n        address DocOwner,\n        uint256 createdAt,\n        bool isCreated\n    );\n\n    function addDocument(\n        string memory _hashFTP,\n        string memory _DocName,\n        string memory _DocDesc\n    ) public {\n        docCounter++;\n        documents[_hashFTP] = Data(\n            _hashFTP,\n            docCounter,\n            _DocName,\n            _DocDesc,\n            msg.sender,\n            block.timestamp,\n            true\n        );\n        emit Document(\n            _hashFTP,\n            docCounter,\n            _DocName,\n            _DocDesc,\n            msg.sender,\n            block.timestamp,\n            true\n        );\n    }\n\n    function getDocument(string memory _hashFTP) public {\n        Data memory document = documents[_hashFTP];\n        require(\n            document.isCreated != false,\n            \"Invalid document or the document is not downloaded\"\n        );\n        emit Document(\n            document.hashFTP,\n            document.id,\n            document.DocName,\n            document.DocDesc,\n            document.DocOwner,\n            document.createdAt,\n            document.isCreated\n        );\n    }\n}\n",
  "sourcePath": "R:\\Cursos\\Autonomo\\Blockchain\\POC-Upload-doc\\contracts\\FileContract.sol",
  "compiler": {
    "name": "solc",
    "version": "0.8.7+commit.e28d00a7.Emscripten.clang"
  },
  "schemaVersion": "3.4.11",
  "updatedAt": "2022-12-14T01:10:49.364Z",
  "networkType": "ethereum",
  "devdoc": {
    "kind": "dev",
    "methods": {},
    "version": 1
  },
  "userdoc": {
    "kind": "user",
    "methods": {},
    "version": 1
  }
}