{
  "contractName": "FileContract",
  "abi": [
    {
      "inputs": [],
      "stateMutability": "nonpayable",
      "type": "constructor"
    },
    {
      "anonymous": false,
      "inputs": [
        {
          "indexed": false,
          "internalType": "string",
          "name": "hashFTP",
          "type": "string"
        },
        {
          "indexed": false,
          "internalType": "uint256",
          "name": "id",
          "type": "uint256"
        },
        {
          "indexed": false,
          "internalType": "string",
          "name": "DocName",
          "type": "string"
        },
        {
          "indexed": false,
          "internalType": "string",
          "name": "DocDesc",
          "type": "string"
        },
        {
          "indexed": false,
          "internalType": "address",
          "name": "DocOwner",
          "type": "address"
        },
        {
          "indexed": false,
          "internalType": "uint256",
          "name": "createdAt",
          "type": "uint256"
        },
        {
          "indexed": false,
          "internalType": "string",
          "name": "group",
          "type": "string"
        },
        {
          "indexed": false,
          "internalType": "bool",
          "name": "isCreated",
          "type": "bool"
        }
      ],
      "name": "Document",
      "type": "event"
    },
    {
      "inputs": [],
      "name": "docCounter",
      "outputs": [
        {
          "internalType": "uint256",
          "name": "",
          "type": "uint256"
        }
      ],
      "stateMutability": "view",
      "type": "function"
    },
    {
      "inputs": [
        {
          "internalType": "uint256",
          "name": "",
          "type": "uint256"
        }
      ],
      "name": "forDoc",
      "outputs": [
        {
          "internalType": "string",
          "name": "hashFTP",
          "type": "string"
        },
        {
          "internalType": "uint256",
          "name": "id",
          "type": "uint256"
        },
        {
          "internalType": "string",
          "name": "DocName",
          "type": "string"
        },
        {
          "internalType": "string",
          "name": "DocDesc",
          "type": "string"
        },
        {
          "internalType": "address",
          "name": "DocOwner",
          "type": "address"
        },
        {
          "internalType": "uint256",
          "name": "createdAt",
          "type": "uint256"
        },
        {
          "internalType": "string",
          "name": "group",
          "type": "string"
        },
        {
          "internalType": "bool",
          "name": "isCreated",
          "type": "bool"
        }
      ],
      "stateMutability": "view",
      "type": "function"
    },
    {
      "inputs": [
        {
          "internalType": "string",
          "name": "_hashFTP",
          "type": "string"
        },
        {
          "internalType": "string",
          "name": "_DocName",
          "type": "string"
        },
        {
          "internalType": "string",
          "name": "_DocDesc",
          "type": "string"
        },
        {
          "internalType": "string",
          "name": "_group",
          "type": "string"
        }
      ],
      "name": "addDocument",
      "outputs": [],
      "stateMutability": "nonpayable",
      "type": "function"
    },
    {
      "inputs": [
        {
          "internalType": "string",
          "name": "_hashFTP",
          "type": "string"
        }
      ],
      "name": "getDocument",
      "outputs": [],
      "stateMutability": "nonpayable",
      "type": "function"
    }
  ],
  "bytecode": "0x608060405273a4b5ee2906090ce2cdbf5dfff944db26f397037d6000806101000a81548173ffffffffffffffffffffffffffffffffffffffff021916908373ffffffffffffffffffffffffffffffffffffffff16021790555060006001553480156200006a57600080fd5b506200007b620000c160201b60201c565b600260006101000a81548173ffffffffffffffffffffffffffffffffffffffff021916908373ffffffffffffffffffffffffffffffffffffffff16021790555062000499565b6000606060008054906101000a900473ffffffffffffffffffffffffffffffffffffffff1673ffffffffffffffffffffffffffffffffffffffff166040516024016040516020818303038152906040527f7bdf2ec7000000000000000000000000000000000000000000000000000000007bffffffffffffffffffffffffffffffffffffffffffffffffffffffff19166020820180517bffffffffffffffffffffffffffffffffffffffffffffffffffffffff83818316178352505050506040516200018e9190620003e1565b6000604051808303816000865af19150503d8060008114620001cd576040519150601f19603f3d011682016040523d82523d6000602084013e620001d2565b606091505b5090508091505080806020019051810190620001ef919062000378565b73ffffffffffffffffffffffffffffffffffffffff163373ffffffffffffffffffffffffffffffffffffffff1614156200035957606060008054906101000a900473ffffffffffffffffffffffffffffffffffffffff1673ffffffffffffffffffffffffffffffffffffffff166040516024016040516020818303038152906040527f7a6ce2e1000000000000000000000000000000000000000000000000000000007bffffffffffffffffffffffffffffffffffffffffffffffffffffffff19166020820180517bffffffffffffffffffffffffffffffffffffffffffffffffffffffff8381831617835250505050604051620002ee9190620003e1565b6000604051808303816000865af19150503d80600081146200032d576040519150601f19603f3d011682016040523d82523d6000602084013e62000332565b606091505b50905080915050808060200190518101906200034f919062000378565b925050506200035e565b339150505b90565b60008151905062000372816200047f565b92915050565b6000602082840312156200039157620003906200047a565b5b6000620003a18482850162000361565b91505092915050565b6000620003b782620003fa565b620003c3818562000405565b9350620003d581856020860162000444565b80840191505092915050565b6000620003ef8284620003aa565b915081905092915050565b600081519050919050565b600081905092915050565b60006200041d8262000424565b9050919050565b600073ffffffffffffffffffffffffffffffffffffffff82169050919050565b60005b838110156200046457808201518184015260208101905062000447565b8381111562000474576000848401525b50505050565b600080fd5b6200048a8162000410565b81146200049657600080fd5b50565b61116c80620004a96000396000f3fe608060405234801561001057600080fd5b506004361061004c5760003560e01c80630e72ca7a146100515780635c26862b1461006d5780637ccb6a64146100a4578063da4d8b47146100c0575b600080fd5b61006b60048036038101906100669190610bc1565b6100de565b005b61008760048036038101906100829190610c98565b610405565b60405161009b989796959493929190610d96565b60405180910390f35b6100be60048036038101906100b99190610b78565b61069a565b005b6100c8610a4a565b6040516100d59190610e50565b60405180910390f35b600160008154809291906100f190610fd5565b919050555060405180610100016040528085815260200160015481526020018481526020018381526020013373ffffffffffffffffffffffffffffffffffffffff1681526020014281526020018281526020016001151581525060038560405161015b9190610d7f565b90815260200160405180910390206000820151816000019080519060200190610185929190610a50565b506020820151816001015560408201518160020190805190602001906101ac929190610a50565b5060608201518160030190805190602001906101c9929190610a50565b5060808201518160040160006101000a81548173ffffffffffffffffffffffffffffffffffffffff021916908373ffffffffffffffffffffffffffffffffffffffff16021790555060a0820151816005015560c0820151816006019080519060200190610237929190610a50565b5060e08201518160070160006101000a81548160ff02191690831515021790555090505060405180610100016040528085815260200160015481526020018481526020018381526020013373ffffffffffffffffffffffffffffffffffffffff1681526020014281526020018281526020016001151581525060046000600154815260200190815260200160002060008201518160000190805190602001906102e1929190610a50565b50602082015181600101556040820151816002019080519060200190610308929190610a50565b506060820151816003019080519060200190610325929190610a50565b5060808201518160040160006101000a81548173ffffffffffffffffffffffffffffffffffffffff021916908373ffffffffffffffffffffffffffffffffffffffff16021790555060a0820151816005015560c0820151816006019080519060200190610393929190610a50565b5060e08201518160070160006101000a81548160ff0219169083151502179055509050507f535e574a13f4b2661f3deee55b86b32bbdea695043c2f9e6ec6421f26b2336b384600154858533428760016040516103f7989796959493929190610d96565b60405180910390a150505050565b600460205280600052604060002060009150905080600001805461042890610f72565b80601f016020809104026020016040519081016040528092919081815260200182805461045490610f72565b80156104a15780601f10610476576101008083540402835291602001916104a1565b820191906000526020600020905b81548152906001019060200180831161048457829003601f168201915b5050505050908060010154908060020180546104bc90610f72565b80601f01602080910402602001604051908101604052809291908181526020018280546104e890610f72565b80156105355780601f1061050a57610100808354040283529160200191610535565b820191906000526020600020905b81548152906001019060200180831161051857829003601f168201915b50505050509080600301805461054a90610f72565b80601f016020809104026020016040519081016040528092919081815260200182805461057690610f72565b80156105c35780601f10610598576101008083540402835291602001916105c3565b820191906000526020600020905b8154815290600101906020018083116105a657829003601f168201915b5050505050908060040160009054906101000a900473ffffffffffffffffffffffffffffffffffffffff169080600501549080600601805461060490610f72565b80601f016020809104026020016040519081016040528092919081815260200182805461063090610f72565b801561067d5780601f106106525761010080835404028352916020019161067d565b820191906000526020600020905b81548152906001019060200180831161066057829003601f168201915b5050505050908060070160009054906101000a900460ff16905088565b60006003826040516106ac9190610d7f565b9081526020016040518091039020604051806101000160405290816000820180546106d690610f72565b80601f016020809104026020016040519081016040528092919081815260200182805461070290610f72565b801561074f5780601f106107245761010080835404028352916020019161074f565b820191906000526020600020905b81548152906001019060200180831161073257829003601f168201915b505050505081526020016001820154815260200160028201805461077290610f72565b80601f016020809104026020016040519081016040528092919081815260200182805461079e90610f72565b80156107eb5780601f106107c0576101008083540402835291602001916107eb565b820191906000526020600020905b8154815290600101906020018083116107ce57829003601f168201915b5050505050815260200160038201805461080490610f72565b80601f016020809104026020016040519081016040528092919081815260200182805461083090610f72565b801561087d5780601f106108525761010080835404028352916020019161087d565b820191906000526020600020905b81548152906001019060200180831161086057829003601f168201915b505050505081526020016004820160009054906101000a900473ffffffffffffffffffffffffffffffffffffffff1673ffffffffffffffffffffffffffffffffffffffff1673ffffffffffffffffffffffffffffffffffffffff168152602001600582015481526020016006820180546108f690610f72565b80601f016020809104026020016040519081016040528092919081815260200182805461092290610f72565b801561096f5780601f106109445761010080835404028352916020019161096f565b820191906000526020600020905b81548152906001019060200180831161095257829003601f168201915b505050505081526020016007820160009054906101000a900460ff1615151515815250509050600015158160e00151151514156109e1576040517f08c379a00000000000000000000000000000000000000000000000000000000081526004016109d890610e30565b60405180910390fd5b7f535e574a13f4b2661f3deee55b86b32bbdea695043c2f9e6ec6421f26b2336b3816000015182602001518360400151846060015185608001518660a001518760c001518860e00151604051610a3e989796959493929190610d96565b60405180910390a15050565b60015481565b828054610a5c90610f72565b90600052602060002090601f016020900481019282610a7e5760008555610ac5565b82601f10610a9757805160ff1916838001178555610ac5565b82800160010185558215610ac5579182015b82811115610ac4578251825591602001919060010190610aa9565b5b509050610ad29190610ad6565b5090565b5b80821115610aef576000816000905550600101610ad7565b5090565b6000610b06610b0184610e90565b610e6b565b905082815260208101848484011115610b2257610b216110b0565b5b610b2d848285610f30565b509392505050565b600082601f830112610b4a57610b496110ab565b5b8135610b5a848260208601610af3565b91505092915050565b600081359050610b728161111f565b92915050565b600060208284031215610b8e57610b8d6110ba565b5b600082013567ffffffffffffffff811115610bac57610bab6110b5565b5b610bb884828501610b35565b91505092915050565b60008060008060808587031215610bdb57610bda6110ba565b5b600085013567ffffffffffffffff811115610bf957610bf86110b5565b5b610c0587828801610b35565b945050602085013567ffffffffffffffff811115610c2657610c256110b5565b5b610c3287828801610b35565b935050604085013567ffffffffffffffff811115610c5357610c526110b5565b5b610c5f87828801610b35565b925050606085013567ffffffffffffffff811115610c8057610c7f6110b5565b5b610c8c87828801610b35565b91505092959194509250565b600060208284031215610cae57610cad6110ba565b5b6000610cbc84828501610b63565b91505092915050565b610cce81610ee8565b82525050565b610cdd81610efa565b82525050565b6000610cee82610ec1565b610cf88185610ecc565b9350610d08818560208601610f3f565b610d11816110bf565b840191505092915050565b6000610d2782610ec1565b610d318185610edd565b9350610d41818560208601610f3f565b80840191505092915050565b6000610d5a603283610ecc565b9150610d65826110d0565b604082019050919050565b610d7981610f26565b82525050565b6000610d8b8284610d1c565b915081905092915050565b6000610100820190508181036000830152610db1818b610ce3565b9050610dc0602083018a610d70565b8181036040830152610dd28189610ce3565b90508181036060830152610de68188610ce3565b9050610df56080830187610cc5565b610e0260a0830186610d70565b81810360c0830152610e148185610ce3565b9050610e2360e0830184610cd4565b9998505050505050505050565b60006020820190508181036000830152610e4981610d4d565b9050919050565b6000602082019050610e656000830184610d70565b92915050565b6000610e75610e86565b9050610e818282610fa4565b919050565b6000604051905090565b600067ffffffffffffffff821115610eab57610eaa61107c565b5b610eb4826110bf565b9050602081019050919050565b600081519050919050565b600082825260208201905092915050565b600081905092915050565b6000610ef382610f06565b9050919050565b60008115159050919050565b600073ffffffffffffffffffffffffffffffffffffffff82169050919050565b6000819050919050565b82818337600083830152505050565b60005b83811015610f5d578082015181840152602081019050610f42565b83811115610f6c576000848401525b50505050565b60006002820490506001821680610f8a57607f821691505b60208210811415610f9e57610f9d61104d565b5b50919050565b610fad826110bf565b810181811067ffffffffffffffff82111715610fcc57610fcb61107c565b5b80604052505050565b6000610fe082610f26565b91507fffffffffffffffffffffffffffffffffffffffffffffffffffffffffffffffff8214156110135761101261101e565b5b600182019050919050565b7f4e487b7100000000000000000000000000000000000000000000000000000000600052601160045260246000fd5b7f4e487b7100000000000000000000000000000000000000000000000000000000600052602260045260246000fd5b7f4e487b7100000000000000000000000000000000000000000000000000000000600052604160045260246000fd5b600080fd5b600080fd5b600080fd5b600080fd5b6000601f19601f8301169050919050565b7f496e76616c696420646f63756d656e74206f722074686520646f63756d656e7460008201527f206973206e6f7420646f776e6c6f616465640000000000000000000000000000602082015250565b61112881610f26565b811461113357600080fd5b5056fea26469706673582212202c6af432a774a9a752b3d7c9d9331b1580be28f5871711229d32d005f61aaede64736f6c63430008070033",
  "immutableReferences": {},
  "source": "// SPDX-License-Identifier: MIT\n\npragma solidity ^0.8.7;\n\nimport \"./BaseRelayRecipient.sol\";\n\ncontract FileContract is BaseRelayRecipient {\n    uint256 public docCounter = 0;\n    address owner;\n\n    struct Data {\n        string hashFTP;\n        uint256 id;\n        string DocName;\n        string DocDesc;\n        address DocOwner;\n        uint256 createdAt;\n        string group;\n        bool isCreated;\n    }\n\n    mapping(string => Data) documents;\n    mapping(uint256 => Data) public forDoc;\n\n    event Document(\n        string hashFTP,\n        uint256 id,\n        string DocName,\n        string DocDesc,\n        address DocOwner,\n        uint256 createdAt,\n        string group,\n        bool isCreated\n    );\n\n    constructor() {\n        owner = _msgSender();\n    }\n\n    function addDocument(\n        string memory _hashFTP,\n        string memory _DocName,\n        string memory _DocDesc,\n        string memory _group\n    ) public {\n        docCounter++;\n        documents[_hashFTP] = Data(\n            _hashFTP,\n            docCounter,\n            _DocName,\n            _DocDesc,\n            msg.sender,\n            block.timestamp,\n            _group,\n            true\n        );\n        forDoc[docCounter] = Data(\n            _hashFTP,\n            docCounter,\n            _DocName,\n            _DocDesc,\n            msg.sender,\n            block.timestamp,\n            _group,\n            true\n        );\n        emit Document(\n            _hashFTP,\n            docCounter,\n            _DocName,\n            _DocDesc,\n            msg.sender,\n            block.timestamp,\n            _group,\n            true\n        );\n    }\n\n    function getDocument(string memory _hashFTP) public {\n        Data memory document = documents[_hashFTP];\n        require(\n            document.isCreated != false,\n            \"Invalid document or the document is not downloaded\"\n        );\n        emit Document(\n            document.hashFTP,\n            document.id,\n            document.DocName,\n            document.DocDesc,\n            document.DocOwner,\n            document.createdAt,\n            document.group,\n            document.isCreated\n        );\n    }\n}\n",
  "sourcePath": "R:\\Sinapsis\\ARESEP\\Blockchain\\DApp\\contracts\\FileContract.sol",
  "compiler": {
    "name": "solc",
    "version": "0.8.7+commit.e28d00a7.Emscripten.clang"
  },
  "schemaVersion": "3.4.11",
  "updatedAt": "2023-02-07T23:26:54.998Z",
  "devdoc": {
    "kind": "dev",
    "methods": {},
    "version": 1
  },
  "userdoc": {
    "kind": "user",
    "methods": {},
    "version": 1
  }
}