{
  "contractName": "FileContract",
  "abi": [
    {
      "anonymous": false,
      "inputs": [
        {
          "indexed": false,
          "internalType": "string",
          "name": "hashFTP",
          "type": "string"
        },
        {
          "indexed": false,
          "internalType": "uint256",
          "name": "id",
          "type": "uint256"
        },
        {
          "indexed": false,
          "internalType": "string",
          "name": "DocName",
          "type": "string"
        },
        {
          "indexed": false,
          "internalType": "string",
          "name": "DocDesc",
          "type": "string"
        },
        {
          "indexed": false,
          "internalType": "address",
          "name": "DocOwner",
          "type": "address"
        },
        {
          "indexed": false,
          "internalType": "uint256",
          "name": "createdAt",
          "type": "uint256"
        },
        {
          "indexed": false,
          "internalType": "string",
          "name": "group",
          "type": "string"
        },
        {
          "indexed": false,
          "internalType": "bool",
          "name": "isCreated",
          "type": "bool"
        }
      ],
      "name": "Document",
      "type": "event"
    },
    {
      "inputs": [],
      "name": "docCounter",
      "outputs": [
        {
          "internalType": "uint256",
          "name": "",
          "type": "uint256"
        }
      ],
      "stateMutability": "view",
      "type": "function",
      "constant": true
    },
    {
      "inputs": [
        {
          "internalType": "uint256",
          "name": "",
          "type": "uint256"
        }
      ],
      "name": "forDoc",
      "outputs": [
        {
          "internalType": "string",
          "name": "hashFTP",
          "type": "string"
        },
        {
          "internalType": "uint256",
          "name": "id",
          "type": "uint256"
        },
        {
          "internalType": "string",
          "name": "DocName",
          "type": "string"
        },
        {
          "internalType": "string",
          "name": "DocDesc",
          "type": "string"
        },
        {
          "internalType": "address",
          "name": "DocOwner",
          "type": "address"
        },
        {
          "internalType": "uint256",
          "name": "createdAt",
          "type": "uint256"
        },
        {
          "internalType": "string",
          "name": "group",
          "type": "string"
        },
        {
          "internalType": "bool",
          "name": "isCreated",
          "type": "bool"
        }
      ],
      "stateMutability": "view",
      "type": "function",
      "constant": true
    },
    {
      "inputs": [
        {
          "internalType": "string",
          "name": "_hashFTP",
          "type": "string"
        },
        {
          "internalType": "string",
          "name": "_DocName",
          "type": "string"
        },
        {
          "internalType": "string",
          "name": "_DocDesc",
          "type": "string"
        },
        {
          "internalType": "string",
          "name": "_group",
          "type": "string"
        }
      ],
      "name": "addDocument",
      "outputs": [],
      "stateMutability": "nonpayable",
      "type": "function"
    },
    {
      "inputs": [
        {
          "internalType": "string",
          "name": "_hashFTP",
          "type": "string"
        }
      ],
      "name": "getDocument",
      "outputs": [],
      "stateMutability": "nonpayable",
      "type": "function"
    }
  ],
  "bytecode": "0x60806040526000805534801561001457600080fd5b5061116a806100246000396000f3fe608060405234801561001057600080fd5b506004361061004c5760003560e01c80630e72ca7a146100515780635c26862b1461006d5780637ccb6a64146100a4578063da4d8b47146100c0575b600080fd5b61006b60048036038101906100669190610bbf565b6100de565b005b61008760048036038101906100829190610c96565b610403565b60405161009b989796959493929190610d94565b60405180910390f35b6100be60048036038101906100b99190610b76565b610698565b005b6100c8610a48565b6040516100d59190610e4e565b60405180910390f35b6000808154809291906100f090610fd3565b919050555060405180610100016040528085815260200160005481526020018481526020018381526020013373ffffffffffffffffffffffffffffffffffffffff1681526020014281526020018281526020016001151581525060018560405161015a9190610d7d565b90815260200160405180910390206000820151816000019080519060200190610184929190610a4e565b506020820151816001015560408201518160020190805190602001906101ab929190610a4e565b5060608201518160030190805190602001906101c8929190610a4e565b5060808201518160040160006101000a81548173ffffffffffffffffffffffffffffffffffffffff021916908373ffffffffffffffffffffffffffffffffffffffff16021790555060a0820151816005015560c0820151816006019080519060200190610236929190610a4e565b5060e08201518160070160006101000a81548160ff02191690831515021790555090505060405180610100016040528085815260200160005481526020018481526020018381526020013373ffffffffffffffffffffffffffffffffffffffff16815260200142815260200182815260200160011515815250600260008054815260200190815260200160002060008201518160000190805190602001906102df929190610a4e565b50602082015181600101556040820151816002019080519060200190610306929190610a4e565b506060820151816003019080519060200190610323929190610a4e565b5060808201518160040160006101000a81548173ffffffffffffffffffffffffffffffffffffffff021916908373ffffffffffffffffffffffffffffffffffffffff16021790555060a0820151816005015560c0820151816006019080519060200190610391929190610a4e565b5060e08201518160070160006101000a81548160ff0219169083151502179055509050507f535e574a13f4b2661f3deee55b86b32bbdea695043c2f9e6ec6421f26b2336b384600054858533428760016040516103f5989796959493929190610d94565b60405180910390a150505050565b600260205280600052604060002060009150905080600001805461042690610f70565b80601f016020809104026020016040519081016040528092919081815260200182805461045290610f70565b801561049f5780601f106104745761010080835404028352916020019161049f565b820191906000526020600020905b81548152906001019060200180831161048257829003601f168201915b5050505050908060010154908060020180546104ba90610f70565b80601f01602080910402602001604051908101604052809291908181526020018280546104e690610f70565b80156105335780601f1061050857610100808354040283529160200191610533565b820191906000526020600020905b81548152906001019060200180831161051657829003601f168201915b50505050509080600301805461054890610f70565b80601f016020809104026020016040519081016040528092919081815260200182805461057490610f70565b80156105c15780601f10610596576101008083540402835291602001916105c1565b820191906000526020600020905b8154815290600101906020018083116105a457829003601f168201915b5050505050908060040160009054906101000a900473ffffffffffffffffffffffffffffffffffffffff169080600501549080600601805461060290610f70565b80601f016020809104026020016040519081016040528092919081815260200182805461062e90610f70565b801561067b5780601f106106505761010080835404028352916020019161067b565b820191906000526020600020905b81548152906001019060200180831161065e57829003601f168201915b5050505050908060070160009054906101000a900460ff16905088565b60006001826040516106aa9190610d7d565b9081526020016040518091039020604051806101000160405290816000820180546106d490610f70565b80601f016020809104026020016040519081016040528092919081815260200182805461070090610f70565b801561074d5780601f106107225761010080835404028352916020019161074d565b820191906000526020600020905b81548152906001019060200180831161073057829003601f168201915b505050505081526020016001820154815260200160028201805461077090610f70565b80601f016020809104026020016040519081016040528092919081815260200182805461079c90610f70565b80156107e95780601f106107be576101008083540402835291602001916107e9565b820191906000526020600020905b8154815290600101906020018083116107cc57829003601f168201915b5050505050815260200160038201805461080290610f70565b80601f016020809104026020016040519081016040528092919081815260200182805461082e90610f70565b801561087b5780601f106108505761010080835404028352916020019161087b565b820191906000526020600020905b81548152906001019060200180831161085e57829003601f168201915b505050505081526020016004820160009054906101000a900473ffffffffffffffffffffffffffffffffffffffff1673ffffffffffffffffffffffffffffffffffffffff1673ffffffffffffffffffffffffffffffffffffffff168152602001600582015481526020016006820180546108f490610f70565b80601f016020809104026020016040519081016040528092919081815260200182805461092090610f70565b801561096d5780601f106109425761010080835404028352916020019161096d565b820191906000526020600020905b81548152906001019060200180831161095057829003601f168201915b505050505081526020016007820160009054906101000a900460ff1615151515815250509050600015158160e00151151514156109df576040517f08c379a00000000000000000000000000000000000000000000000000000000081526004016109d690610e2e565b60405180910390fd5b7f535e574a13f4b2661f3deee55b86b32bbdea695043c2f9e6ec6421f26b2336b3816000015182602001518360400151846060015185608001518660a001518760c001518860e00151604051610a3c989796959493929190610d94565b60405180910390a15050565b60005481565b828054610a5a90610f70565b90600052602060002090601f016020900481019282610a7c5760008555610ac3565b82601f10610a9557805160ff1916838001178555610ac3565b82800160010185558215610ac3579182015b82811115610ac2578251825591602001919060010190610aa7565b5b509050610ad09190610ad4565b5090565b5b80821115610aed576000816000905550600101610ad5565b5090565b6000610b04610aff84610e8e565b610e69565b905082815260208101848484011115610b2057610b1f6110ae565b5b610b2b848285610f2e565b509392505050565b600082601f830112610b4857610b476110a9565b5b8135610b58848260208601610af1565b91505092915050565b600081359050610b708161111d565b92915050565b600060208284031215610b8c57610b8b6110b8565b5b600082013567ffffffffffffffff811115610baa57610ba96110b3565b5b610bb684828501610b33565b91505092915050565b60008060008060808587031215610bd957610bd86110b8565b5b600085013567ffffffffffffffff811115610bf757610bf66110b3565b5b610c0387828801610b33565b945050602085013567ffffffffffffffff811115610c2457610c236110b3565b5b610c3087828801610b33565b935050604085013567ffffffffffffffff811115610c5157610c506110b3565b5b610c5d87828801610b33565b925050606085013567ffffffffffffffff811115610c7e57610c7d6110b3565b5b610c8a87828801610b33565b91505092959194509250565b600060208284031215610cac57610cab6110b8565b5b6000610cba84828501610b61565b91505092915050565b610ccc81610ee6565b82525050565b610cdb81610ef8565b82525050565b6000610cec82610ebf565b610cf68185610eca565b9350610d06818560208601610f3d565b610d0f816110bd565b840191505092915050565b6000610d2582610ebf565b610d2f8185610edb565b9350610d3f818560208601610f3d565b80840191505092915050565b6000610d58603283610eca565b9150610d63826110ce565b604082019050919050565b610d7781610f24565b82525050565b6000610d898284610d1a565b915081905092915050565b6000610100820190508181036000830152610daf818b610ce1565b9050610dbe602083018a610d6e565b8181036040830152610dd08189610ce1565b90508181036060830152610de48188610ce1565b9050610df36080830187610cc3565b610e0060a0830186610d6e565b81810360c0830152610e128185610ce1565b9050610e2160e0830184610cd2565b9998505050505050505050565b60006020820190508181036000830152610e4781610d4b565b9050919050565b6000602082019050610e636000830184610d6e565b92915050565b6000610e73610e84565b9050610e7f8282610fa2565b919050565b6000604051905090565b600067ffffffffffffffff821115610ea957610ea861107a565b5b610eb2826110bd565b9050602081019050919050565b600081519050919050565b600082825260208201905092915050565b600081905092915050565b6000610ef182610f04565b9050919050565b60008115159050919050565b600073ffffffffffffffffffffffffffffffffffffffff82169050919050565b6000819050919050565b82818337600083830152505050565b60005b83811015610f5b578082015181840152602081019050610f40565b83811115610f6a576000848401525b50505050565b60006002820490506001821680610f8857607f821691505b60208210811415610f9c57610f9b61104b565b5b50919050565b610fab826110bd565b810181811067ffffffffffffffff82111715610fca57610fc961107a565b5b80604052505050565b6000610fde82610f24565b91507fffffffffffffffffffffffffffffffffffffffffffffffffffffffffffffffff8214156110115761101061101c565b5b600182019050919050565b7f4e487b7100000000000000000000000000000000000000000000000000000000600052601160045260246000fd5b7f4e487b7100000000000000000000000000000000000000000000000000000000600052602260045260246000fd5b7f4e487b7100000000000000000000000000000000000000000000000000000000600052604160045260246000fd5b600080fd5b600080fd5b600080fd5b600080fd5b6000601f19601f8301169050919050565b7f496e76616c696420646f63756d656e74206f722074686520646f63756d656e7460008201527f206973206e6f7420646f776e6c6f616465640000000000000000000000000000602082015250565b61112681610f24565b811461113157600080fd5b5056fea2646970667358221220dfc5b800f04342c95e222c591e20689c4979c0120b31b97c728deef3c78f66f464736f6c63430008070033",
  "immutableReferences": {},
  "source": "// SPDX-License-Identifier: MIT\n\npragma solidity ^0.8.7;\n\ncontract FileContract {\n    uint256 public docCounter = 0;\n\n    struct Data {\n        string hashFTP;\n        uint256 id;\n        string DocName;\n        string DocDesc;\n        address DocOwner;\n        uint256 createdAt;\n        string group;\n        bool isCreated;\n    }\n\n    mapping(string => Data) documents;\n    mapping(uint256 => Data) public forDoc;\n\n    event Document(\n        string hashFTP,\n        uint256 id,\n        string DocName,\n        string DocDesc,\n        address DocOwner,\n        uint256 createdAt,\n        string group,\n        bool isCreated\n    );\n\n    function addDocument(\n        string memory _hashFTP,\n        string memory _DocName,\n        string memory _DocDesc,\n        string memory _group\n    ) public {\n        docCounter++;\n        documents[_hashFTP] = Data(\n            _hashFTP,\n            docCounter,\n            _DocName,\n            _DocDesc,\n            msg.sender,\n            block.timestamp,\n            _group,\n            true\n        );\n        forDoc[docCounter] = Data(\n            _hashFTP,\n            docCounter,\n            _DocName,\n            _DocDesc,\n            msg.sender,\n            block.timestamp,\n            _group,\n            true\n        );\n        emit Document(\n            _hashFTP,\n            docCounter,\n            _DocName,\n            _DocDesc,\n            msg.sender,\n            block.timestamp,\n            _group,\n            true\n        );\n    }\n\n    function getDocument(string memory _hashFTP) public {\n        Data memory document = documents[_hashFTP];\n        require(\n            document.isCreated != false,\n            \"Invalid document or the document is not downloaded\"\n        );\n        emit Document(\n            document.hashFTP,\n            document.id,\n            document.DocName,\n            document.DocDesc,\n            document.DocOwner,\n            document.createdAt,\n            document.group,\n            document.isCreated\n        );\n    }\n}\n",
  "sourcePath": "R:\\Cursos\\Autonomo\\Blockchain\\POC-Upload-doc\\contracts\\FileContract.sol",
  "compiler": {
    "name": "solc",
    "version": "0.8.7+commit.e28d00a7.Emscripten.clang"
  },
  "schemaVersion": "3.4.11",
  "updatedAt": "2022-12-14T16:55:52.748Z",
  "networkType": "ethereum",
  "devdoc": {
    "kind": "dev",
    "methods": {},
    "version": 1
  },
  "userdoc": {
    "kind": "user",
    "methods": {},
    "version": 1
  }
}