{
  "contractName": "FileContract",
  "abi": [
    {
      "anonymous": false,
      "inputs": [
        {
          "indexed": false,
          "internalType": "string",
          "name": "hashFTP",
          "type": "string"
        },
        {
          "indexed": false,
          "internalType": "uint256",
          "name": "id",
          "type": "uint256"
        },
        {
          "indexed": false,
          "internalType": "string",
          "name": "DocName",
          "type": "string"
        },
        {
          "indexed": false,
          "internalType": "string",
          "name": "DocDesc",
          "type": "string"
        },
        {
          "indexed": false,
          "internalType": "address",
          "name": "DocOwner",
          "type": "address"
        },
        {
          "indexed": false,
          "internalType": "uint256",
          "name": "createdAt",
          "type": "uint256"
        }
      ],
      "name": "Document",
      "type": "event"
    },
    {
      "inputs": [],
      "name": "docCounter",
      "outputs": [
        {
          "internalType": "uint256",
          "name": "",
          "type": "uint256"
        }
      ],
      "stateMutability": "view",
      "type": "function",
      "constant": true
    },
    {
      "inputs": [
        {
          "internalType": "string",
          "name": "",
          "type": "string"
        }
      ],
      "name": "documents",
      "outputs": [
        {
          "internalType": "string",
          "name": "hashFTP",
          "type": "string"
        },
        {
          "internalType": "uint256",
          "name": "id",
          "type": "uint256"
        },
        {
          "internalType": "string",
          "name": "DocName",
          "type": "string"
        },
        {
          "internalType": "string",
          "name": "DocDesc",
          "type": "string"
        },
        {
          "internalType": "address",
          "name": "DocOwner",
          "type": "address"
        },
        {
          "internalType": "uint256",
          "name": "createdAt",
          "type": "uint256"
        },
        {
          "internalType": "bool",
          "name": "isCreated",
          "type": "bool"
        }
      ],
      "stateMutability": "view",
      "type": "function",
      "constant": true
    },
    {
      "inputs": [
        {
          "internalType": "string",
          "name": "_hashFTP",
          "type": "string"
        },
        {
          "internalType": "string",
          "name": "_DocName",
          "type": "string"
        },
        {
          "internalType": "string",
          "name": "_DocDesc",
          "type": "string"
        }
      ],
      "name": "addDocument",
      "outputs": [],
      "stateMutability": "nonpayable",
      "type": "function"
    },
    {
      "inputs": [
        {
          "internalType": "string",
          "name": "_hashFTP",
          "type": "string"
        }
      ],
      "name": "getDocument",
      "outputs": [],
      "stateMutability": "nonpayable",
      "type": "function"
    }
  ],
  "bytecode": "0x60806040526000805534801561001457600080fd5b50610ea4806100246000396000f3fe608060405234801561001057600080fd5b506004361061004c5760003560e01c806336a8915b146100515780637ccb6a641461006d578063b3dd697b14610089578063da4d8b47146100bf575b600080fd5b61006b6004803603810190610066919061090d565b6100dd565b005b610087600480360381019061008291906108c4565b61027d565b005b6100a3600480360381019061009e91906108c4565b61058e565b6040516100b69796959493929190610afb565b60405180910390f35b6100c76107ab565b6040516100d49190610b9f565b60405180910390f35b6000808154809291906100ef90610d24565b91905055506040518060e0016040528084815260200160005481526020018381526020018281526020013373ffffffffffffffffffffffffffffffffffffffff168152602001428152602001600115158152506001846040516101529190610a6e565b9081526020016040518091039020600082015181600001908051906020019061017c9291906107b1565b506020820151816001015560408201518160020190805190602001906101a39291906107b1565b5060608201518160030190805190602001906101c09291906107b1565b5060808201518160040160006101000a81548173ffffffffffffffffffffffffffffffffffffffff021916908373ffffffffffffffffffffffffffffffffffffffff16021790555060a0820151816005015560c08201518160060160006101000a81548160ff0219169083151502179055509050507fd74baea1f8c779fa0a41c78053d9b79dfe54e629fb9c946d89116a709894cf78836000548484334260405161027096959493929190610a85565b60405180910390a1505050565b600060018260405161028f9190610a6e565b90815260200160405180910390206040518060e00160405290816000820180546102b890610cc1565b80601f01602080910402602001604051908101604052809291908181526020018280546102e490610cc1565b80156103315780601f1061030657610100808354040283529160200191610331565b820191906000526020600020905b81548152906001019060200180831161031457829003601f168201915b505050505081526020016001820154815260200160028201805461035490610cc1565b80601f016020809104026020016040519081016040528092919081815260200182805461038090610cc1565b80156103cd5780601f106103a2576101008083540402835291602001916103cd565b820191906000526020600020905b8154815290600101906020018083116103b057829003601f168201915b505050505081526020016003820180546103e690610cc1565b80601f016020809104026020016040519081016040528092919081815260200182805461041290610cc1565b801561045f5780601f106104345761010080835404028352916020019161045f565b820191906000526020600020905b81548152906001019060200180831161044257829003601f168201915b505050505081526020016004820160009054906101000a900473ffffffffffffffffffffffffffffffffffffffff1673ffffffffffffffffffffffffffffffffffffffff1673ffffffffffffffffffffffffffffffffffffffff168152602001600582015481526020016006820160009054906101000a900460ff1615151515815250509050600015158160c0015115151415610531576040517f08c379a000000000000000000000000000000000000000000000000000000000815260040161052890610b7f565b60405180910390fd5b7fd74baea1f8c779fa0a41c78053d9b79dfe54e629fb9c946d89116a709894cf78816000015182602001518360400151846060015185608001518660a0015160405161058296959493929190610a85565b60405180910390a15050565b6001818051602081018201805184825260208301602085012081835280955050505050506000915090508060000180546105c790610cc1565b80601f01602080910402602001604051908101604052809291908181526020018280546105f390610cc1565b80156106405780601f1061061557610100808354040283529160200191610640565b820191906000526020600020905b81548152906001019060200180831161062357829003601f168201915b50505050509080600101549080600201805461065b90610cc1565b80601f016020809104026020016040519081016040528092919081815260200182805461068790610cc1565b80156106d45780601f106106a9576101008083540402835291602001916106d4565b820191906000526020600020905b8154815290600101906020018083116106b757829003601f168201915b5050505050908060030180546106e990610cc1565b80601f016020809104026020016040519081016040528092919081815260200182805461071590610cc1565b80156107625780601f1061073757610100808354040283529160200191610762565b820191906000526020600020905b81548152906001019060200180831161074557829003601f168201915b5050505050908060040160009054906101000a900473ffffffffffffffffffffffffffffffffffffffff16908060050154908060060160009054906101000a900460ff16905087565b60005481565b8280546107bd90610cc1565b90600052602060002090601f0160209004810192826107df5760008555610826565b82601f106107f857805160ff1916838001178555610826565b82800160010185558215610826579182015b8281111561082557825182559160200191906001019061080a565b5b5090506108339190610837565b5090565b5b80821115610850576000816000905550600101610838565b5090565b600061086761086284610bdf565b610bba565b90508281526020810184848401111561088357610882610dff565b5b61088e848285610c7f565b509392505050565b600082601f8301126108ab576108aa610dfa565b5b81356108bb848260208601610854565b91505092915050565b6000602082840312156108da576108d9610e09565b5b600082013567ffffffffffffffff8111156108f8576108f7610e04565b5b61090484828501610896565b91505092915050565b60008060006060848603121561092657610925610e09565b5b600084013567ffffffffffffffff81111561094457610943610e04565b5b61095086828701610896565b935050602084013567ffffffffffffffff81111561097157610970610e04565b5b61097d86828701610896565b925050604084013567ffffffffffffffff81111561099e5761099d610e04565b5b6109aa86828701610896565b9150509250925092565b6109bd81610c37565b82525050565b6109cc81610c49565b82525050565b60006109dd82610c10565b6109e78185610c1b565b93506109f7818560208601610c8e565b610a0081610e0e565b840191505092915050565b6000610a1682610c10565b610a208185610c2c565b9350610a30818560208601610c8e565b80840191505092915050565b6000610a49603283610c1b565b9150610a5482610e1f565b604082019050919050565b610a6881610c75565b82525050565b6000610a7a8284610a0b565b915081905092915050565b600060c0820190508181036000830152610a9f81896109d2565b9050610aae6020830188610a5f565b8181036040830152610ac081876109d2565b90508181036060830152610ad481866109d2565b9050610ae360808301856109b4565b610af060a0830184610a5f565b979650505050505050565b600060e0820190508181036000830152610b15818a6109d2565b9050610b246020830189610a5f565b8181036040830152610b3681886109d2565b90508181036060830152610b4a81876109d2565b9050610b5960808301866109b4565b610b6660a0830185610a5f565b610b7360c08301846109c3565b98975050505050505050565b60006020820190508181036000830152610b9881610a3c565b9050919050565b6000602082019050610bb46000830184610a5f565b92915050565b6000610bc4610bd5565b9050610bd08282610cf3565b919050565b6000604051905090565b600067ffffffffffffffff821115610bfa57610bf9610dcb565b5b610c0382610e0e565b9050602081019050919050565b600081519050919050565b600082825260208201905092915050565b600081905092915050565b6000610c4282610c55565b9050919050565b60008115159050919050565b600073ffffffffffffffffffffffffffffffffffffffff82169050919050565b6000819050919050565b82818337600083830152505050565b60005b83811015610cac578082015181840152602081019050610c91565b83811115610cbb576000848401525b50505050565b60006002820490506001821680610cd957607f821691505b60208210811415610ced57610cec610d9c565b5b50919050565b610cfc82610e0e565b810181811067ffffffffffffffff82111715610d1b57610d1a610dcb565b5b80604052505050565b6000610d2f82610c75565b91507fffffffffffffffffffffffffffffffffffffffffffffffffffffffffffffffff821415610d6257610d61610d6d565b5b600182019050919050565b7f4e487b7100000000000000000000000000000000000000000000000000000000600052601160045260246000fd5b7f4e487b7100000000000000000000000000000000000000000000000000000000600052602260045260246000fd5b7f4e487b7100000000000000000000000000000000000000000000000000000000600052604160045260246000fd5b600080fd5b600080fd5b600080fd5b600080fd5b6000601f19601f8301169050919050565b7f496e76616c696420646f63756d656e74206f722074686520646f63756d656e7460008201527f206973206e6f7420646f776e6c6f61646564000000000000000000000000000060208201525056fea2646970667358221220063afa49e89b8383d9a4dc50fcf8c96692e5ea186f871127a8d01e90707ad26764736f6c63430008070033",
  "immutableReferences": {},
  "source": "// SPDX-License-Identifier: MIT\n\npragma solidity ^0.8.7;\n\ncontract FileContract {\n    uint256 public docCounter = 0;\n\n    struct Data {\n        string hashFTP;\n        uint256 id;\n        string DocName;\n        string DocDesc;\n        address DocOwner;\n        uint256 createdAt;\n        bool isCreated;\n    }\n\n    mapping(string => Data) public documents;\n\n    event Document(\n        string hashFTP,\n        uint256 id,\n        string DocName,\n        string DocDesc,\n        address DocOwner,\n        uint256 createdAt\n    );\n\n    function addDocument(\n        string memory _hashFTP,\n        string memory _DocName,\n        string memory _DocDesc\n    ) public {\n        docCounter++;\n        documents[_hashFTP] = Data(\n            _hashFTP,\n            docCounter,\n            _DocName,\n            _DocDesc,\n            msg.sender,\n            block.timestamp,\n            true\n        );\n        emit Document(\n            _hashFTP,\n            docCounter,\n            _DocName,\n            _DocDesc,\n            msg.sender,\n            block.timestamp\n        );\n    }\n\n    function getDocument(string memory _hashFTP) public {\n        Data memory document = documents[_hashFTP];\n        require(\n            document.isCreated != false,\n            \"Invalid document or the document is not downloaded\"\n        );\n        emit Document(\n            document.hashFTP,\n            document.id,\n            document.DocName,\n            document.DocDesc,\n            document.DocOwner,\n            document.createdAt\n        );\n    }\n}\n",
  "sourcePath": "R:\\Cursos\\Autonomo\\Blockchain\\POC-Upload-doc\\contracts\\FileContract.sol",
  "compiler": {
    "name": "solc",
    "version": "0.8.7+commit.e28d00a7.Emscripten.clang"
  },
  "schemaVersion": "3.4.11",
  "updatedAt": "2022-12-11T21:04:18.643Z",
  "networkType": "ethereum",
  "devdoc": {
    "kind": "dev",
    "methods": {},
    "version": 1
  },
  "userdoc": {
    "kind": "user",
    "methods": {},
    "version": 1
  }
}